{
    "contractName": "Manager",
    "abi": [
        {
            "anonymous": false,
            "inputs": [
                {
                    "indexed": false,
                    "internalType": "uint8",
                    "name": "version",
                    "type": "uint8"
                }
            ],
            "name": "Initialized",
            "type": "event"
        },
        {
            "anonymous": false,
            "inputs": [
                {
                    "indexed": true,
                    "internalType": "address",
                    "name": "previousOwner",
                    "type": "address"
                },
                {
                    "indexed": true,
                    "internalType": "address",
                    "name": "newOwner",
                    "type": "address"
                }
            ],
            "name": "OwnershipTransferred",
            "type": "event"
        },
        {
            "anonymous": false,
            "inputs": [
                {
                    "indexed": false,
                    "internalType": "address",
                    "name": "commonRecipient",
                    "type": "address"
                }
            ],
            "name": "RecipientSet",
            "type": "event"
        },
        {
            "anonymous": false,
            "inputs": [
                {
                    "indexed": false,
                    "internalType": "uint16",
                    "name": "royaltyBps",
                    "type": "uint16"
                },
                {
                    "indexed": false,
                    "internalType": "address",
                    "name": "contractAddress",
                    "type": "address"
                }
            ],
            "name": "RoyaltySet",
            "type": "event"
        },
        {
            "anonymous": false,
            "inputs": [
                {
                    "indexed": false,
                    "internalType": "uint16",
                    "name": "commonSplit",
                    "type": "uint16"
                }
            ],
            "name": "SplitSet",
            "type": "event"
        },
        {
            "inputs": [],
            "name": "commonRecipient",
            "outputs": [
                {
                    "internalType": "address payable",
                    "name": "",
                    "type": "address"
                }
            ],
            "stateMutability": "view",
            "type": "function"
        },
        {
            "inputs": [],
            "name": "commonSplit",
            "outputs": [
                {
                    "internalType": "uint16",
                    "name": "",
                    "type": "uint16"
                }
            ],
            "stateMutability": "view",
            "type": "function"
        },
        {
            "inputs": [
                {
                    "internalType": "address",
                    "name": "",
                    "type": "address"
                }
            ],
            "name": "contractRoyalty",
            "outputs": [
                {
                    "internalType": "uint16",
                    "name": "",
                    "type": "uint16"
                }
            ],
            "stateMutability": "view",
            "type": "function"
        },
        {
            "inputs": [],
            "name": "getCommonRecipient",
            "outputs": [
                {
                    "components": [
                        {
                            "internalType": "address payable",
                            "name": "recipient",
                            "type": "address"
                        },
                        {
                            "internalType": "uint16",
                            "name": "bps",
                            "type": "uint16"
                        }
                    ],
                    "internalType": "struct Recipient",
                    "name": "recipient",
                    "type": "tuple"
                }
            ],
            "stateMutability": "view",
            "type": "function"
        },
        {
            "inputs": [],
            "name": "getCreatorSplit",
            "outputs": [
                {
                    "internalType": "uint16",
                    "name": "",
                    "type": "uint16"
                }
            ],
            "stateMutability": "view",
            "type": "function"
        },
        {
            "inputs": [],
            "name": "getRoyaltyInfo",
            "outputs": [
                {
                    "internalType": "address",
                    "name": "",
                    "type": "address"
                },
                {
                    "internalType": "uint16",
                    "name": "",
                    "type": "uint16"
                }
            ],
            "stateMutability": "view",
            "type": "function"
        },
        {
            "inputs": [
                {
                    "internalType": "address payable",
                    "name": "_commonRecipient",
                    "type": "address"
                },
                {
                    "internalType": "uint16",
                    "name": "_commonSplit",
                    "type": "uint16"
                }
            ],
            "name": "initialize",
            "outputs": [],
            "stateMutability": "nonpayable",
            "type": "function"
        },
        {
            "inputs": [],
            "name": "owner",
            "outputs": [
                {
                    "internalType": "address",
                    "name": "",
                    "type": "address"
                }
            ],
            "stateMutability": "view",
            "type": "function"
        },
        {
            "inputs": [],
            "name": "renounceOwnership",
            "outputs": [],
            "stateMutability": "nonpayable",
            "type": "function"
        },
        {
            "inputs": [
                {
                    "internalType": "address",
                    "name": "contractAddress",
                    "type": "address"
                },
                {
                    "internalType": "uint16",
                    "name": "_royaltyBps",
                    "type": "uint16"
                }
            ],
            "name": "setContractRoyalty",
            "outputs": [],
            "stateMutability": "nonpayable",
            "type": "function"
        },
        {
            "inputs": [
                {
                    "internalType": "address payable",
                    "name": "_commonRecipient",
                    "type": "address"
                }
            ],
            "name": "setRecipient",
            "outputs": [],
            "stateMutability": "nonpayable",
            "type": "function"
        },
        {
            "inputs": [
                {
                    "internalType": "uint16",
                    "name": "_commonSplit",
                    "type": "uint16"
                }
            ],
            "name": "setSplit",
            "outputs": [],
            "stateMutability": "nonpayable",
            "type": "function"
        },
        {
            "inputs": [
                {
                    "internalType": "address",
                    "name": "newOwner",
                    "type": "address"
                }
            ],
            "name": "transferOwnership",
            "outputs": [],
            "stateMutability": "nonpayable",
            "type": "function"
        }
    ],
    "bytecode": "608060405234801561001057600080fd5b506108bc806100206000396000f3fe608060405234801561001057600080fd5b50600436106100cf5760003560e01c80638b49fde71161008c578063c0bd4cdd11610066578063c0bd4cdd146101fe578063d0b72b9314610222578063f2fde38b14610235578063f39e69a41461024857600080fd5b80638b49fde7146101635780638da5cb5b146101b4578063a86a28d1146101c557600080fd5b806311edb735146100d457806315a86f5e146100fa5780633bbed4a01461012b578063706ec2fe14610140578063715018a614610148578063733fc03d14610150575b600080fd5b6065546100e29061ffff1681565b60405161ffff90911681526020015b60405180910390f35b606554610113906201000090046001600160a01b031681565b6040516001600160a01b0390911681526020016100f1565b61013e610139366004610736565b61025b565b005b6100e261026f565b61013e61028a565b61013e61015e366004610771565b61029e565b6040805180820182526000808252602091820152815180830183526065546201000081046001600160a01b031680835261ffff918216928401928352845190815291511691810191909152016100f1565b6033546001600160a01b0316610113565b60655433600090815260666020908152604091829020548251620100009094046001600160a01b0316845261ffff1690830152016100f1565b6100e261020c366004610736565b60666020526000908152604090205461ffff1681565b61013e61023036600461078c565b6102af565b61013e610243366004610736565b610392565b61013e61025636600461078c565b610408565b61026361052d565b61026c81610587565b50565b6065546000906102859061ffff166127106107c1565b905090565b61029261052d565b61029c600061060c565b565b6102a661052d565b61026c8161065e565b6102b761052d565b61271061ffff8216106103295760405162461bcd60e51b815260206004820152602f60248201527f526f79616c74792063616e27742062652067726561746572207468616e20546f60448201526e74616c206261736520706f696e747360881b60648201526084015b60405180910390fd5b6001600160a01b038216600081815260666020908152604091829020805461ffff191661ffff86169081179091558251908152908101929092527f7f9762123fb25c27c3aa0ecf56eeed3e1518bc8ee29086c7ff5dd6238a37c264910160405180910390a15050565b61039a61052d565b6001600160a01b0381166103ff5760405162461bcd60e51b815260206004820152602660248201527f4f776e61626c653a206e6577206f776e657220697320746865207a65726f206160448201526564647265737360d01b6064820152608401610320565b61026c8161060c565b600054610100900460ff16158080156104285750600054600160ff909116105b806104425750303b158015610442575060005460ff166001145b6104a55760405162461bcd60e51b815260206004820152602e60248201527f496e697469616c697a61626c653a20636f6e747261637420697320616c72656160448201526d191e481a5b9a5d1a585b1a5e995960921b6064820152608401610320565b6000805460ff1916600117905580156104c8576000805461ff0019166101001790555b6104d183610587565b6104da8261065e565b6104e26106c7565b8015610528576000805461ff0019169055604051600181527f7f26b83ff96e1f2b6a682f133852f6798a09c465da95921460cefb38474024989060200160405180910390a15b505050565b6033546001600160a01b0316331461029c5760405162461bcd60e51b815260206004820181905260248201527f4f776e61626c653a2063616c6c6572206973206e6f7420746865206f776e65726044820152606401610320565b6001600160a01b0381166105ad5760405162461bcd60e51b8152600401610320906107f1565b6065805462010000600160b01b031916620100006001600160a01b038416908102919091179091556040519081527f9d900d71c28433348acb1bec780a061608a96b149370abce77fd54ba2d479401906020015b60405180910390a150565b603380546001600160a01b038381166001600160a01b0319831681179093556040519116919082907f8be0079c531659141344cd1fd0a4f28419497f9722a3daafe3b4186f6b6457e090600090a35050565b61271061ffff8216106106835760405162461bcd60e51b8152600401610320906107f1565b6065805461ffff191661ffff83169081179091556040519081527fb8dc7db64fd987e5b05af4eb247387c388b40222e3ecb8c029b8a62227d4d28b90602001610601565b600054610100900460ff166106ee5760405162461bcd60e51b81526004016103209061083b565b61029c600054610100900460ff166107185760405162461bcd60e51b81526004016103209061083b565b61029c3361060c565b6001600160a01b038116811461026c57600080fd5b60006020828403121561074857600080fd5b813561075381610721565b9392505050565b803561ffff8116811461076c57600080fd5b919050565b60006020828403121561078357600080fd5b6107538261075a565b6000806040838503121561079f57600080fd5b82356107aa81610721565b91506107b86020840161075a565b90509250929050565b61ffff8281168282160390808211156107ea57634e487b7160e01b600052601160045260246000fd5b5092915050565b6020808252602a908201527f43616e27742073657420636f6d6d6f6e20726563697069656e7420746f207a65604082015269726f206164647265737360b01b606082015260800190565b6020808252602b908201527f496e697469616c697a61626c653a20636f6e7472616374206973206e6f74206960408201526a6e697469616c697a696e6760a81b60608201526080019056fea264697066735822122085cde3da34e11558ca4a0f2f17b3e72051cef70705a749da0cac7f077b8385ee64736f6c63430008130033",
    "sourcePath": "/home/jay/work/poc-royalty/contracts/Manager.sol",
    "compiler": {
        "name": "solc",
        "version": "0.8.19+commit.7dd6d404"
    },
    "functionHashes": {
        "commonRecipient()": "15a86f5e",
        "commonSplit()": "11edb735",
        "contractRoyalty(address)": "c0bd4cdd",
        "getCommonRecipient()": "8b49fde7",
        "getCreatorSplit()": "706ec2fe",
        "getRoyaltyInfo()": "a86a28d1",
        "initialize(address,uint16)": "f39e69a4",
        "owner()": "8da5cb5b",
        "renounceOwnership()": "715018a6",
        "setContractRoyalty(address,uint16)": "d0b72b93",
        "setRecipient(address)": "3bbed4a0",
        "setSplit(uint16)": "733fc03d",
        "transferOwnership(address)": "f2fde38b"
    },
    "gasEstimates": {
        "creation": {
            "codeDepositCost": "447200",
            "executionCost": "480",
            "totalCost": "447680"
        },
        "external": {
            "commonRecipient()": "2371",
            "commonSplit()": "2303",
            "contractRoyalty(address)": "2539",
            "getCommonRecipient()": "2485",
            "getCreatorSplit()": "2484",
            "getRoyaltyInfo()": "4577",
            "initialize(address,uint16)": "infinite",
            "owner()": "2376",
            "renounceOwnership()": "infinite",
            "setContractRoyalty(address,uint16)": "28299",
            "setRecipient(address)": "infinite",
            "setSplit(uint16)": "27933",
            "transferOwnership(address)": "infinite"
        },
        "internal": {
            "_setRecipient(address payable)": "infinite",
            "_setSplit(uint16)": "infinite"
        }
    }
}